:1000000010C02AC06FC328C027C069C525C024C03E
:10001000EEC522C021C020C01FC01EC01DC01CC014
:100020001BC011241FBECFE5D1E0DEBFCDBF10E065
:10003000A0E6B0E0EAE8FDE002C005900D92A0372E
:10004000B107D9F720E0A0E7B0E001C01D92A03BC6
:10005000B207E1F739D297C6D3CFCF92DF92FF92A2
:100060000F931F93CF93DF93AC01E0E0F0E020E02B
:1000700001E010E0FE2EE8010E2E02C0CC0FDD1FC5
:100080000A94E2F73C2F80E090E0A82F01966C01E3
:10009000CC22DD22CD2871F06A0102C0D694C7942B
:1000A000AA95E2F7D6010F2C01C0AA0F0A94EAF72D
:1000B000A3232A278F30910541F73196E430F105CB
:1000C000C9F6E0E0F0E090E0DA010E2E02C0B6954D
:1000D000A7950A94E2F7A1709A273196E031F105CD
:1000E00099F7222371F0913071F4215081E090E072
:1000F00002C0880F991F2A95E2F74827592790E0F8
:1001000003C0919501C09FEF21E030E0CAE0A0E07C
:10011000B0E0E22F8FEF820F2F303105D1F0E130C8
:10012000A9F08B7F823091F0FA01022E02C0F69581
:10013000E7950A94E2F7E170FF270C2E02C0EE0F5C
:10014000FF1F0A94E2F7AE2BBF2BC1502F5F3F4F2A
:10015000E0CFFB01B183A083892FDF91CF911F9165
:100160000F91FF90DF90CF9008950F931F93CF933F
:10017000DF93DC0141E050E0EAE020E030E0642F72
:100180009FEF940F4F305105D1F06130A9F09B7F64
:10019000923091F0BD010E2E02C0769567950A94BB
:1001A000E2F761707727042E02C0660F771F0A946A
:1001B000E2F7262B372BE1504F5F5F4FE0CF60E037
:1001C00070E0C1E0D0E0FE01062E02C0EE0FFF1F7E
:1001D0000A94E2F7DF01119783E090E0AC0141500F
:1001E00051098C010E231F23012B89F0890102C0C4
:1001F000169507954A95E2F7A801417055270A2EF2
:1002000002C0440F551F0A94E2F7242735270196B0
:100210008031910519F76F5F7F4F6430710599F652
:1002200040E050E080E0B901042E02C07695679569
:100230000A94E2F7617086274F5F5F4F40315105A6
:1002400091F790E09927869597958827822B932B95
:10025000DF91CF911F910F910895FC0180E090E014
:100260006623E1F021919227092E0294202D2F7010
:100270002927392F3025330F307E2327302D39277A
:10028000307F3695092E000C331F969596959695DE
:100290009F7193279827822F6150E2CF08951F9373
:1002A000CF93DF93CDB7DEB7C251CDBF10D4882333
:1002B00009F4FBC080918900803129F08091890088
:1002C000803209F0F2C0BE01635F7F4F80917600FB
:1002D00090917700C2DE8111F1C090918A008D85E6
:1002E00098139BC08E85823009F44BC018F4882384
:1002F00039F093C0833031F1863009F468C08DC085
:1003000080917300811107C0DE9A88B3887F88BB13
:1003100088B3876088BB6BE08AE790E09EDF9093AC
:1003200086008093850080917300811106C0DE985D
:1003300088B3887F88BB88B388BB68E670E08AE7AB
:1003400090E06AC086E0E5E6F0E0DE0111960190FB
:100350000D928A95E1F71F82188619861A861C86E7
:100360001B8680E090E0F6D46F83788789879A8730
:1003700066E0CE01019671DF9C878B8760E670E0B6
:1003800049C080918900803209F047C0809178008F
:10039000909179009A8B898BBE016F5F7F4F5DDEF4
:1003A000811110C089819A818854944F9A838983DE
:1003B000909375008093740088E893E190937200A5
:1003C0008093710060E170E0CE01419625C080917C
:1003D0008900803211F5BE016F5E7F4F80917800F9
:1003E000909179003ADE811118C089899A899C011F
:1003F000207E377095E0220F331F9A95E1F73A8BF4
:10040000298B632F659565958F719DD19A8389831B
:1004100060E170E0CE01019617D31E85153051F0D2
:10042000173019F01130A1F50BC08D858A3A81F58E
:10043000E7D42EC08D858A3A59F510928B0028C0DA
:1004400080918B00811124C02D85822F90E0019630
:1004500091609A838983D5988FE19EE40197F1F7A3
:1004600000C0000020938A0020937A0089819A813D
:100470007CDE9A83898360E170E0CE010196E4D24C
:1004800010938B00DE9888B3887F88BB88B388BBC5
:100490001092890040E266E770E089E890E0B1D20E
:1004A000109288001092870009C080918700909177
:1004B000880001969093880080938700CE5ECDBF20
:1004C000DF91CF911F91089587B3876087BBD69A3C
:1004D00080E886BD81E086BD8BB780618BBF8BE7EE
:1004E00090E00BD18FE181B940E266E770E089E8E6
:1004F00090E087D27894912CC0E088E0E82EF12C2F
:10050000CC24C394D12C08EB1BE024E8B22E30E8B5
:10051000A32E80918B00882321F0813009F44AC0FA
:10052000FACFCF5FC3702C2FC7010C2E02C0959558
:1005300087950A94E2F780FF02C0DE9A01C0DE9838
:1005400088B3887F88BB98B3A60102C0440F551FAB
:100550002A95E2F7842F8770892B88BBD59A109251
:1005600088001092870080918700909188008436DF
:100570009105E8F480918900811108C0CF9B03C0E8
:100580008EB58F7B02C08EB580648EBD8FE097E202
:100590000197F1F700C0000082DE80918700909102
:1005A000880001969093880080938700DCCFD92D36
:1005B0009D2EAFCF24D173DEDFEFD90D911061C036
:1005C0002091740030917500293B9BE0390730F091
:1005D0008091710090917200892B41F4DE9888B36C
:1005E000887F88BB88B388BB80E049C0909070004A
:1005F000EBE7F0E040E050E0D90113972D5F3F4F6B
:10060000742E6191719181E090E06A177B0710F080
:1006100080E090E0072C01C0880F0A94EAF7882E4A
:10062000809481E090E02617370710F080E090E09A
:10063000BC0101C0660F7A94EAF7962A98204F5FB2
:100640005F4F45305105E1F69092700093FE02C075
:10065000DE9A01C0DE9888B3887F88BB98B380910A
:1006600070008770892B88BB809171009091720017
:100670000197909372008093710080917000809335
:1006800073008091870090918800019609F090CFC7
:100690001093750000937400DE9888B3887F88BB40
:1006A00088B388BBD59A3798979A10928900B5BEBF
:1006B000A5BE85B7877E806185BF85B7806285BF0F
:1006C000889585B78F7D85BF979810928800109286
:1006D0008700379AD59840E266E770E089E890E0B5
:1006E00090D166CF1F920F920FB60F921124979A56
:1006F0000F900FBE0F901F901895CF93DF93EC01D2
:1007000048E050E06EE070E081EA90E00CD348E011
:1007100050E066E070E089E990E005D384E090E085
:100720001DD3909398008093970086E190E00AD3C0
:1007300080939600D0939500C093940086E886B984
:10074000DF91CF910895CF93DF93909196009923F5
:1007500009F450C0262F843088F490E0880F991F48
:10076000EC01CF55DF4F68817981620F711D27FD44
:100770007A9579836883825F9F4F17C083FF19C082
:10078000982F97709430A8F4892F90E0880F991FC4
:10079000EC01C756DF4F68817981620F711D27FD1B
:1007A0007A95798368838A5F9F4FEAD2888199819D
:1007B00023C08031A1F46091970070919800620F7E
:1007C000711D27FD7A95709398006093970084E0DF
:1007D00090E0D6D280919700909198000DC08F3113
:1007E00049F41092960060E086E190E0BBD281E08F
:1007F00090E002C080E090E0DF91CF9108958F9269
:100800009F92AF92BF92CF92DF92EF92FF921F938F
:10081000CF93DF933699FECF10919300153008F0F7
:10082000CCC080916400882341F084B195B136E05A
:10083000959587953A95E1F702C084B195B12091DD
:1008400092002330C8F0092E000CAA0BBB0B40917C
:100850008E0050918F006091900070919100840FF4
:10086000951FA61FB71F80938E0090938F00A093B3
:100870009000B093910015C0213099F4143089F0A4
:1008800080529E4F813C934050F0133011F0812FE5
:1008900001C084E087B91C981092640002C02093C4
:1008A0006400809192008F5F80939200833409F0FE
:1008B0009BC080918E0090918F00A0919000B0918C
:1008C0009100143009F44DC060916400C12FD0E054
:1008D000FE01EE0FFF1F662319F0E756FF4F02C01F
:1008E000EF55FF4F2081318140E050E0662349F011
:1008F000C0906000D0906100E0906200F0906300D2
:1009000003C0C12CD12C7601BC01CD016C0D7D1D25
:100910008E1D9F1D88D149015A018FEFA81AB80A70
:1009200081E1B694A794979487948A95D1F7CC0FD8
:10093000DD1F8091940090919500C80FD91F809180
:100940008C0090918D009401281B390B39832883EA
:10095000133011F4812C912C90928D0080928C0098
:100960000CC08C5B984EA64FBF4F80936000909355
:100970006100A0936200B093630010928E00109209
:100980008F0010929000109291001092920081E0DE
:1009900080936400E0919300EF5FE0939300E53073
:1009A00028F4F0E0E559FF4F80811AC082E280937D
:1009B000930082EA87B91C9817C01232A9F484B157
:1009C00095B1E0919400F0919500209197003091BD
:1009D0009800821B930B91878087109293008BE085
:1009E00087B983B1806983B9369ADF91CF911F911E
:1009F000FF90EF90DF90CF90BF90AF909F908F903F
:100A000008959093AC008093AB007093AA0060931C
:100A1000A9004093AE001092AF001092AD001DBC33
:100A20001CBCD798DF981FBC81E88EBD81E28BB9D2
:100A30008CB181628CB9CF9B03C08EB58F7B02C015
:100A40008EB580648EBD0895DC011CB8CF9B02C0BA
:100A5000DF9801C0DF9AD79A8FE891E00197F1F70C
:100A600000C000009BB390589BBB20E030E02617ED
:100A7000370721F1F90183E0F695E7958A95E1F7CB
:100A8000EA0FFB1F408150E0C9018770992702C01F
:100A9000559547958A95E2F740FF06C087EC90E0B0
:100AA0000197F1F700C003C095E89A95F1F70000AF
:100AB0009BB390589BBB2F5F3F4FD9CF87EC90E003
:100AC0000197F1F700C00000D798DF9808952CB582
:100AD0003DB581E0213C324108F480E008951F9249
:100AE0000F920FB60F9211242F933F934F935F9362
:100AF0008F939F93AF93BF93EF93FF9324B535B537
:100B00001DBC1CBC9EB580E489278EBDE091A90068
:100B1000F091AA008091AF009091AD00913041F02A
:100B200018F09230A9F054C081E08093AD0050C01D
:100B3000215B34402F35394018F482E08093AD00BA
:100B40001092AF00E091AB00F091AC00108240C079
:100B50009091AE00A091AB00B091AC008917A0F5C8
:100B6000982F969596959695E90FF11DA901495CE8
:100B700051094F38514060F4982F977021E030E0D0
:100B800001C0220F9A95EAF72095908129230FC082
:100B9000295532402735324078F4982F977021E05C
:100BA00030E001C0220F9A95EAF79081292B20832B
:100BB0008F5F8093AF0004C01092AD001092AF0021
:100BC0008091AF008C9304C083E08093AD009C9330
:100BD000FF91EF91BF91AF919F918F915F914F9155
:100BE0003F912F910F900FBE0F901F9018951F925D
:100BF0000F920FB60F9211248F931DBC1CBCCF9B7C
:100C000003C08EB58F7B02C08EB580648EBD1092FE
:100C1000AD001092AF008F910F900FBE0F901F90FC
:100C2000189568940013E894A0E0B0E0E9E1F6E0DC
:100C30001DC0EFEFE7F959016A015E23550FEE0879
:100C4000FE2C87019B01AC019E23990F660B762F2A
:100C5000CB013BD0CDB7DEB7EAE024C02F923F9264
:100C60004F925F926F927F928F929F92AF92BF92BC
:100C7000CF92DF92EF92FF920F931F93CF93DF9368
:100C8000CDB7DEB7CA1BDB0B0FB6F894DEBF0FBEC5
:100C9000CDBF09942A88398848885F846E847D8412
:100CA0008C849B84AA84B984C884DF80EE80FD8014
:100CB0000C811B81AA81B981CE0FD11D0FB6F8948A
:100CC000DEBF0FBECDBFED010895DF93CF939F929E
:100CD000A0E49A2E0024D001E001F00116950795BA
:100CE000F794E794D794C794B794A79448F41068FE
:100CF000A20FB31FC41FD51FE61FF71F081E191E22
:100D0000220F331F441F551F661F771F881F991F0F
:100D10009A9421F79D01AE01BF01C00111249F905B
:100D2000CF91DF910895DC01862FE82FE199FECF66
:100D30001FBA05C0EEBBE09AE3950DB20D9241508B
:100D4000C8F70895E199FECF1FBA8EBBE09A9927A4
:100D50008DB30895A6E1B0E044E0E7CFA8E1B0E0AC
:100D600042E0E3CF262FE199FECF1CBA1FBA8EBB1B
:100D70002DBB0FB6F894E29AE19A0FBE0196089542
:0A0D8000F1DF272FF0CFF894FFCF2A
:100D8A0044170900010100005201410B0F113325DC
:100E0000CDB7DEB7C354CDBFF8941CB8D798DF98E0
:100E100088B3876088BB80E010E461E070E007E0A1
:100E20003E0122E4620E711C51E8F52EE3E0EE2E45
:100E3000BB24B394F5E0AF2E1DBC1CBC1FBCFEBC94
:100E4000CF9B04C09EB59F7B9EBD03C09EB59064A2
:100E5000FBCF20E030E0F90143E0F695E7954A95B5
:100E6000E1F741E050E04C0F5D1FE40FF51F5D9A84
:100E70005D9BFECF44B555B51DBC1CBC9EB59127EE
:100E80009EBD6A0199ECC91AD108AFE8CA16A1E063
:100E9000DA0670F4A901477055276B0102C0CC0C2B
:100EA000DD1C4A95E2F7A60140959081492311C0C7
:100EB000495552404735524060F6A90147705527C1
:100EC000DB0102C0AA0FBB1F4A95E2F7AD0190817A
:100ED000492B40832F5F3F4F2831B2E03B0708F496
:100EE000BACF98B3902798BB20E030E0FE0131964E
:100EF00091913927032E0294902D9F709327432FB1
:100F00004025440F407E9427402D4327407F46953F
:100F1000032E000C441F3695369536953F713427C5
:100F20003227292FE615F70518F39980E7E3E9152D
:100F300008F482CFD3014D915C912417350789F5D0
:100F400098122BC090E026E0880F991F2A95E1F7B0
:100F5000FC01E0925700E89507B600FCFDCFFC01CC
:100F60009E012E5F3F4FAC01405C5F4FE417F507D9
:100F700058F4D901CD90DD909D010601B092570043
:100F8000E89511243296F2CFFC01A0925700E89523
:100F900007B600FCFDCF81E0890DF7E39F124CCF2F
:100FA00019C0CF9B02C0DF9801C0DF9AD79AAFE883
:100FB000B1E01197F1F700C000009BB390589BBBC4
:100FC000B5E8BA95F1F700009BB390589BBBD79852
:100FD000DF9832CF5D9AEFEFF0E722E0E150F0408A
:100FE0002040E1F700C000005D99F4CF1AD8CD5B36
:040FF000CDBF0895D4
:00000001FF
