:1000000019C033C032C031C030C02FC02EC02DC087
:100010002CC02BC09AC129C028C022C226C025C02E
:1000200004C123C022C021C0F4C01FC01EC01DC017
:100030001CC01BC011241FBECFEFD4E0DEBFCDBF5C
:1000400012E0A0E0B1E0EAE1F2E102C005900D9219
:10005000A432B107D9F722E0A4E2B2E001C01D92B8
:10006000A136B207E1F702D0D6C8CACFCF93DF934B
:10007000CDB7DEB764970FB6F894DEBF0FBECDBF25
:100080001092BC001092C50095E09093C40080913E
:10009000C0008D7F8093C00088E58093C10086E01A
:1000A0008093C200219A559A529A289A579A18B862
:1000B00095BD80916E00816080936E009FE088E125
:1000C0000FB6F894A895809360000FBE90936000DF
:1000D000789488B18F6388B920E090E080E030E2C6
:1000E000A8954FEF5FEA61E0415050406040E1F772
:1000F00000C00000823009F441C088F4882371F107
:10010000813009F05EC086B1E1E0F0E0EC0FFD1F48
:10011000E90FF11D8770808383E023E0E1CF833016
:10012000E1F1843009F04DC088B1807C88B938B1E4
:1001300090910001892F90E00196022E01C0880F56
:100140000A94EAF7832B88B937B187E090E001C0C1
:10015000880F2A95EAF7832B87B93FC09BB1932775
:100160009BB996B19770973089F596B1969596950B
:1001700096959770973059F182E029C086B1E1E0F9
:10018000F0E0EC0FFD1FE90FF11D86958695869531
:100190008770808383E020E0A3CF9F5F933030F4AB
:1001A0002330B9F021119CCF82E09ACF89814A8116
:1001B000841311C04B8184130EC08093000184E02E
:1001C0008FCF5D9A853009F08BCF07C081E090E03A
:1001D00087CF81E085CF80E083CF5D9883E091E099
:1001E000BBD1809100014AE0BE016F5F7F4F90E07C
:1001F000A0D7B2D180E090E056D102DE80E090E05E
:1002000064960FB6F894DEBF0FBECDBFDF91CF91DD
:1002100008951F920F920FB60F9211245D985A986D
:100220000F900FBE0F901F9018951F920F920FB650
:100230000F9211248F939F93809124029091250215
:10024000892B19F45C985F9809C0809124029091E1
:100250002502019790932502809324029F918F910C
:100260000F900FBE0F901F901895909329028093C6
:100270002802709327026093260240932B0210926B
:100280002C0210922A021092850010928400299864
:100290001092800081E88093810080E286BB80918B
:1002A0006F00816280936F00189B04C08091810071
:1002B0008F7B03C0809181008064809381000895CA
:1002C000DC0180916F008E7D80936F00299A81E51B
:1002D00094E00197F1F700C0000085B192E0982703
:1002E00095B920E030E082E02617370731F1F901B7
:1002F00093E0F695E7959A95E1F7EA0FFB1F4081A9
:1003000050E0F901E770FF2702C055954795EA953F
:10031000E2F740FF06C0E8E2F2E03197F1F700C0F3
:1003200004C0E4E1F1E03197F1F7000095B195B137
:10033000982795B92F5F3F4FD7CF88E292E001977A
:10034000F1F700C00000299808951F920F920FB690
:100350000F9211242F933F934F935F938F939F930B
:10036000AF93BF93EF93FF93209186003091870066
:10037000273282E0380708F464C01092850010929A
:1003800084009091810080E4892780938100E0912E
:100390002602F091270280912C0290912A0291303E
:1003A00041F018F0923071F04CC081E080932A0245
:1003B00048C0253E3C4018F082E080932A0210920B
:1003C0002C023FC090912B02A0912802B0912902EB
:1003D000891790F5982F969596959695E90FF11DAA
:1003E000A901475252404B34544060F4982F977003
:1003F00021E030E001C0220F9A95EAF72095908124
:1004000029230FC0235736402137364078F4982FE0
:10041000977021E030E001C0220F9A95EAF79081B1
:10042000292B20838F5F80932C0202C010922A0216
:1004300080912C028C9305C083E080932A029F5FF9
:100440009C93FF91EF91BF91AF919F918F915F919D
:100450004F913F912F910F900FBE0F901F901895C5
:100460001F920F920FB60F9211248F939F9388ECD7
:1004700099E19093850080938400189B04C080913B
:1004800081008F7B03C08091810080648093810014
:1004900010922A0210922C029F918F910F900FBE02
:1004A0000F901F9018955C0190932E0280932D025F
:1004B000C12CD12CC0E0D0E0712C612CE12CF12CAE
:1004C00000E010E0C50198D48A3089F4209729F41F
:1004D000C12CD12C7E2C6F2CF1CFEA81FB81C7017E
:1004E00009956E017E2C6F2CC0E0D0E0E7CF813201
:1004F00061F4C114D10421F3D6011296ED91FC915F
:100500001397872D962D0995DBCFF801E15DFD4FFF
:1005100080830F31110514F40F5F1F4FF801E15D67
:10052000FD4F4F011082E114F10461F6C2EFD1E0FA
:10053000688179816115710539F08FE292E0F0D51B
:10054000892B29F02496F4CFC0E0D0E0BBCF2097D0
:1005500009F4B8CF7401B6CF0F931F93CF93DF93F5
:1005600000912D0210912E02EC01699116161CF4D7
:10057000C80137D4FACFDF91CF911F910F91089521
:100580009627092E0294202D2F702927692F602588
:10059000660F607E2627602D6927607F6695092E8D
:1005A000000C661F9695969596959F7196279827AD
:1005B000822F08956AEA80E090E01FD6FFCFEF9285
:1005C000FF920F931F93CF93DF9300D0CDB7DEB789
:1005D0008C01CB0169837A83BFDF6981E62E7A8142
:1005E000F72EF70161917F01C80116161CF4C8DFD0
:1005F0008C01F7CF0F900F90DF91CF911F910F914A
:10060000FF90EF900895CF92DF92EF92FF920F93B9
:100610001F93CF93DF93CDB7DEB7C654D1090FB682
:10062000F894DEBF0FBECDBF60E070E081E091E0E6
:1006300047DE2FEF8FE593E0215080409040E1F7B7
:1006400000C0000087E080935E028AEA80935D022A
:1006500080915D0290915E026FD426969FAF8EAF1F
:10066000269760E170E0CE018C5B9F4F29DEEFEFB3
:10067000FFE523E0E150F0402040E1F700C000003A
:1006800080E090E0C8D3DD24D3948E010F5F1F4F2C
:1006900083E4C82EC00E2796DFAE2797780180E04E
:1006A00090E0AAD3F70181937F01CE12F8CF68E1E1
:1006B00072E0C80105DE10924F0241E0BE016A5BA4
:1006C0007F4F8FE492E0D1DD8FEF9BE60197F1F74A
:1006D00000C0000080914F02882321F08AE091E061
:1006E0003BDF1EC089818733D9F45D9A9FEFEFEB22
:1006F000F1E29150E040F040E1F700C000005D9869
:10070000CA5BDF4F0FB6F894DEBF0FBECDBFDF91DF
:10071000CF911F910F91FF90EF90DF90CF900895B0
:1007200080E090E078D3B7CFCF93DF93EC010196D0
:1007300028812032D9F31982CE01D5D4209100012D
:1007400030E08217930719F4CE01029602C080E0D0
:1007500090E0DF91CF910895CF93DF9300D0CDB794
:10076000DEB7E2DF0097C9F0BED480935D0210923D
:100770005E0210924F0280915D0290915E02DCD386
:100780009A83898360E170E0CE01019699DD48E6A5
:1007900060E572E08FE492E068DD0F900F90DF91EA
:1007A000CF910895EF92FF921F93CF93DF93182F6D
:1007B000EB01809100014AE090E0BBD4CE010196AC
:1007C0007C0117FD0AC08EE28983BE016E5F7F4FF8
:1007D0004AE0812F110F990BACD4C7010197DF912B
:1007E000CF911F91FF90EF900895FF920F931F9369
:1007F000CF93DF93CDB7DEB760970FB6F894DEBF27
:100800000FBECDBF91DF8C01009709F476C06BD489
:10081000F82EF8010F5F1F4F90819F7DD1F7CF0118
:1008200062D4885B9B40813D27E0920718F08CE002
:1008300091E062C022E020935E02F0925D0290930C
:10084000600280935F0280915D0290915E0274D39A
:100850009C878B8780915F02909160026DD39E8709
:100860008D8760E270E0CE010B962ADD10924F0278
:1008700040E1BE01655F7F4F8FE492E0F6DC95E6D4
:1008800080914F02803118F0803141F50AC09150BB
:1008900029F1EFEFFBE63197F1F700C00000A895D2
:1008A000EFCFBE01615F7F4F8B859C85BDD28111EB
:1008B00015C08FE191E050DEBE016F5F7F4F8F2D3D
:1008C00071DF4ADE86E291E047DE8F8598894AE053
:1008D000BE016F5F7F4F8854944F0AC088E291E059
:1008E0003BDE80914F024AE0BE016F5F7F4F90E098
:1008F00020D432DE80E891E02FDE60960FB6F894C7
:10090000DEBF0FBECDBFDF91CF911F910F91FF9042
:100910000895EF92FF920F931F93CF93DF93CDB77C
:10092000DEB72E970FB6F894DEBF0FBECDBFFCDE4C
:100930008C01009709F470C0D6D3F82E9801890174
:100940002F5F3F4FF80180818F7DC9F7C801CBD35E
:10095000E82E0F5F1F4FF8010F5F1F4F90819F7DA3
:10096000D1F7CF01C0D326E020935E02F0925D0262
:1009700025E0880F991F2A95E1F79C01207E3770AA
:100980002E293093600220935F0280915D02909146
:100990005E02D2D29C878B8780915F029091600229
:1009A000CBD29E878D8760E270E0CE010B9688DC0B
:1009B00010924F0240E1BE01655F7F4F8FE492E0ED
:1009C00054DC95E680914F028031B0F08031F1F433
:1009D0008FE391E0C1DDBE016F5F7F4F8F2DE2DEBF
:1009E000BBDD86E291E0B8DD4AE0BE016F5F7F4F7C
:1009F0008B859C85D1D30CC0915041F0EFEFFBE685
:100A00003197F1F700C00000A895DCCF86E491E0B3
:100A1000A3DD80E891E0A0DD2E960FB6F894DEBF4E
:100A20000FBECDBFDF91CF911F910F91FF90EF903F
:100A300008959F92AF92BF92CF92DF92EF92FF9272
:100A40000F931F93CF93DF93CDB7DEB760970FB6A9
:100A5000F894DEBF0FBECDBF8C01962E69017A01DE
:100A60006BE571E080E090E0AADD5C01BE016F5FA4
:100A70007F4F892D97DEBC01C501A1DD66E271E0E3
:100A80009EDD5C01B801CE010196D9D2BC01C50141
:100A900096DD60E671E093DD5C01B801CE01019660
:100AA00005D3BC01C5018BDD60E671E088DD8C01FA
:100AB0002AE0AE014F5F5F4FC701B6014CD3BC01C6
:100AC000C8017DDD60E671E07ADD40E1BE016F5F67
:100AD0007F4F2FD341DD60960FB6F894DEBF0FBE77
:100AE000CDBFDF91CF911F910F91FF90EF90DF90DD
:100AF000CF90BF90AF909F900895DF92EF92FF92BA
:100B00000F931F93CF93DF93CDB7DEB72E970FB61A
:100B1000F894DEBF0FBECDBF07DE009709F449C0D1
:100B2000E2D280935D0283E080935E0210924F02D6
:100B300080915D0290915E02FFD19E878D8760E17A
:100B400070E0CE010D96BCDB40E68E010F5F1F4FBB
:100B5000B8018FE492E089DB22E383E091E0215049
:100B600080409040E1F700C000C080E090E0780154
:100B700026E0D22ED00EF70161917F0101DDDE105B
:100B8000FACF20914F02203671F42B853C858217D5
:100B9000930749F42F81388549855A8560915D0214
:100BA000C80147DF03C082E691E0D6DC80E891E02F
:100BB000D3DC2E960FB6F894DEBF0FBECDBFDF910B
:100BC000CF911F910F91FF90EF90DF900895ACDDD2
:100BD000892B51F020E030E0A9016FEF8EE192E027
:100BE00028DF80E891E0B8CC0895CF93DF9300D060
:100BF000CDB7DEB799DD892B01F160E070E081E0CF
:100C000091E05EDB8FEF97ED0197F1F700C00000F8
:100C100085E080935E028AEA80935D0280915D02A6
:100C200090915E0289D19A83898360E170E0CE0160
:100C3000019646DB82E791E08FDC0F900F90DF9109
:100C4000CF910895CF93DF93CDB7DEB72C970FB632
:100C5000F894DEBF0FBECDBF67DD892B09F43EC01F
:100C600081E091E09C878B8767D19C878B8760E1CF
:100C700070E0CE010B9624DB10924F0240E1BE01E2
:100C8000655F7F4F8FE492E0F0DA85E690914F0246
:100C9000903118F0903111F50AC08150F9F0EFEF62
:100CA000FBE63197F1F700C00000A895EFCF6DE5A6
:100CB00072E08B859C85B8D0811110C083E891E0EB
:100CC0004BDC80915D0290E04AE0BE016F5F7F4F98
:100CD00001972FD241DC80E891E03EDC2C960FB6E4
:100CE000F894DEBF0FBECDBFDF91CF910895EF9294
:100CF000FF920F931F93CF93DF93CDB7DEB72A9761
:100D00000FB6F894DEBF0FBECDBF0EDD892B09F400
:100D10005BC080E090E000E512E02BE0F22EF00EE8
:100D2000F80161918F012CDCF012FACF20914F0273
:100D3000283659F08AE891E00FDC80914F024AE0B2
:100D4000BE016F5F7F4F90E03AC020915B0230910F
:100D50005C028217930719F082EA91E031C06EEAD3
:100D600071E080E090E02BDC8C01BE016F5F7F4F73
:100D70008091500217DDBC01C80121DC66E271E000
:100D80001EDC8C0181E5E82E82E0F82E4AE0BE01EF
:100D90006F5F7F4FF701819191917F01CAD1BC01B3
:100DA000C8010DDC60E671E00ADC8C01FBE5EF16A2
:100DB000F2E0FF0659F740E1BE016F5F7F4FB9D106
:100DC000CBDB80E891E0C8DB2A960FB6F894DEBF53
:100DD0000FBECDBFDF91CF911F910F91FF90EF908C
:100DE00008955D9A5A9A8091C00085FFFCCF609368
:100DF000C60080E090E008958091C00087FD02C0A9
:100E0000A895FACF84E690E090932502809324027F
:100E10008091C6000895E1ECF0E080818F7E8083B0
:100E20008081806180830895CF92DF92FF920F933B
:100E30001F93CF93DF93AC01E0E0F0E020E001E00E
:100E400010E0FE2EE8010E2E02C0CC0FDD1F0A942A
:100E5000E2F73C2F80E090E0A82F01966C01CC22B5
:100E6000DD22CD2871F06A0102C0D694C794AA95FC
:100E7000E2F7D6010F2C01C0AA0F0A94EAF7A323C8
:100E80002A278F30910541F73196E430F105C9F6F4
:100E9000E0E0F0E090E0DA010E2E02C0B695A795F2
:100EA0000A94E2F7A1709A273196E031F10599F79B
:100EB000222371F0913071F4215081E090E002C062
:100EC000880F991F2A95E2F74827592790E003C019
:100ED000919501C09FEF21E030E0CAE0A0E0B0E0D2
:100EE000E22F8FEF820F2F303105D1F0E130A9F0E2
:100EF0008B7F823091F0FA01022E02C0F695E795C1
:100F00000A94E2F7E170FF270C2E02C0EE0FFF1FDC
:100F10000A94E2F7AE2BBF2BC1502F5F3F4FE0CFBB
:100F2000FB01B183A083892FDF91CF911F910F9196
:100F3000FF90DF90CF9008950F931F93CF93DF938F
:100F4000DC0141E050E0EAE020E030E0642F9FEF78
:100F5000940F4F305105D1F06130A9F09B7F923052
:100F600091F0BD010E2E02C0769567950A94E2F7C6
:100F700061707727042E02C0660F771F0A94E2F78C
:100F8000262B372BE1504F5F5F4FE0CF60E070E0E2
:100F9000C1E0D0E0FE01062E02C0EE0FFF1F0A9452
:100FA000E2F7DF01119783E090E0AC014150510975
:100FB0008C010E231F23012B89F0890102C0169595
:100FC00007954A95E2F7A801417055270A2E02C0FD
:100FD000440F551F0A94E2F72427352701968031E4
:100FE000910519F76F5F7F4F6430710599F640E006
:100FF00050E080E0B901042E02C0769567950A940E
:10100000E2F7617086274F5F5F4F4031510591F7DE
:1010100090E09927869597958827822B932BDF91CF
:10102000CF911F910F910895FB012191BF01FC0108
:10103000222319F02193CF01F7CF10820895EF9268
:10104000FF920F931F93CF93DF938C01EB01888165
:101050004AE0B80190E06DD0BC01C801E5DF68E06E
:1010600071E0E2DF7C0189814AE0B70190E061D064
:10107000BC01C701D9DF68E071E0D6DF7C018A815D
:101080004AE0B70190E055D0BC01C701CDDF68E070
:1010900071E0CADF2B81FC0120831182C801DF913E
:1010A000CF911F910F91FF90EF9008950F931F9391
:1010B000CF93DF93EC018B01FB0184814AE0BE01F9
:1010C00090E037D0BC01CE01AFDF68E071E0ACDF6B
:1010D000F8012581FC0120831182CE01DF91CF919F
:1010E0001F910F910895FC0188279927E894219179
:1010F0002032E9F3293010F02E30C8F32B3239F0CA
:101100002D3231F4689403C01ED0820F911D2191BD
:1011100020532A30C8F31EF4909581959F4F08956F
:10112000FB01DC018D91019080190110D9F3990B1D
:101130000895BB274A3031F4992322F4BDE29095FB
:1011400081959F4F2AC07AE0979F902D879F802D91
:10115000910D11240895BB27FA01A62F621771057E
:1011600081059105330B30FB66F0AA27660F771FC8
:10117000881F991FAA1FA21710F0A21B6395385051
:10118000A9F7A05DAA3308F0A95DA19336F7B111C4
:10119000B1931082CA0119C0BB27FB015527AA27AA
:1011A000880F991FAA1FA41710F0A41B83955051F4
:1011B000B9F7A05DAA3308F0A95DA193009779F76C
:1011C000B111B1931192CB0100C0DC01FC01672F7A
:1011D00071917723E1F7329704C07C916D9370830E
:1011E0006291AE17BF07C8F30895F999FECF92BD7B
:1011F00081BDF89A992780B50895262FF999FECFD9
:101200001FBA92BD81BD20BD0FB6F894FA9AF99A23
:0A1210000FBE01960895F894FFCF79
:10121A0007000052656164792E004500496E7661C7
:10122A006C696420617267756D656E740D0A00736E
:10123A0068756E7420003A005368756E7420636F87
:10124A006D6D616E64206661696C65643A20006345
:10125A00616C6962200043616C696220636F6D6D25
:10126A00616E64206661696C65640076657220004F
:10127A002C004E6F2076616C6964207265706C79FF
:10128A002E0049737375656420636F6D6D616E64BA
:10129A000D0A00666F756E642000496E76616C698E
:1012AA0064206E756E6D626572206F662062697465
:1012BA007300496E76616C6964204352430076611B
:1012CA006C2000676574006D6D7576657200636DDC
:1012DA0075766572007072696E74007265736574F2
:1012EA006164720063616C6962007368756E740090
:1012FA00636D757064617465006D6D757064617499
:10130A006500B301AC03B701E705BE017D05C50160
:10131A007706CB01F505CD012206D4018904DA014D
:10132A00F503E0010303E901DA020000000001000D
:04133A001342024117
:101E000080E090E0F2D98A3A29F405D060E080E0E1
:101E100090E0F3D90FC16F927F929F92AF92BF92E1
:101E2000CF92DF92EF92FF920F931F93CF93DF93A6
:101E3000CDB7DEB7C354D1090FB6F894DEBF0FBEDD
:101E4000CDBFF8941092C50085E08093C4008091C6
:101E5000C0008D7F8093C00088E18093C10086E040
:101E60008093C200559A529A5D9A80E0BE016C5BE5
:101E70007F4F3E0132E4630E711C15E401E093E0F4
:101E8000B92E25E0A22E30E2932EFE0131969091DC
:101E9000C00097FD02C0A895FACF9091C60091931B
:101EA000E617F707A1F720E030E0FE0131969191A7
:101EB0003927032E0294902D9F709327432F40259E
:101EC000440F407E9427402D4327407F4695032EA4
:101ED000000C441F3695369536953F7134273227CE
:101EE000292FE615F70518F3D3014D915C912417BE
:101EF000350799F52981263780F528132AC0B0E4E3
:101F00008B9FC0011124FC01B0925700E89507B6E1
:101F100000FCFDCFFC01AE014E5F5F4F7C0130E461
:101F2000E30EF11CEE15FF0558F4DA01CD90DD90BB
:101F3000AD01060100935700E89511243296F2CFC7
:101F4000FC01A0925700E89507B600FCFDCF81E0A8
:101F5000820F91E0253759F40BC05A9A1093C600AE
:101F6000ACECBAE01197F1F700C000005A9890E08D
:101F70002BB129252BB9992309F487CF81E18093CF
:101F80005700E895CD5BDF4F0FB6F894DEBF0FBE6C
:101F9000CDBFDF91CF911F910F91FF90EF90DF9018
:0E1FA000CF90BF90AF909F907F906F9008956C
:00000001FF
